:100000000C9493000C9486030C94BB000C94BB00DE
:100010000C94BB000C94BB000C94BB000C94BB0074
:100020000C94BB000C94BB000C94BB000C94BB0064
:100030000C94BB000C94BB000C94BB000C94BB0054
:100040000C94E4020C94BB000C9454030C942E0307
:100050000C94BB000C94BB000C94BB000C94BB0034
:100060000C94BB000C94BB00526561647920746FE2
:100070002072656365697665204E454320495220AC
:100080007369676E616C732061742070696E2032D1
:10009000005354415254202E2E2F646163734861E3
:1000A0007463682E6370702066726F6D204D617985
:1000B00020203220323032320020436F6D6D616E6D
:1000C000643D30780049523A20416464726573732C
:1000D0003D30780000000008000201000003040722
:1000E00000000000000000000000000025002800C3
:1000F0002B0000000000240027002A000404040450
:1001000004040404020202020202030303030303C1
:10011000010204081020408001020408102001029E
:1001200004081020760611241FBECFEFD8E0DEBFF2
:10013000CDBF11E0A0E0B1E0EEECFDE002C0059023
:100140000D92A23BB107D9F722E0A2EBB1E001C0CA
:100150001D92A038B207E1F710E0C3E9D0E004C077
:100160002197FE010E94D006C239D107C9F70E942B
:100170007A040C94E5060C94000090E0FC01E05F2A
:10018000FE4F249184509F4FFC018491882399F065
:1001900090E0880F991FFC01EE50FF4FA591B4919C
:1001A000FC01E851FF4F859194918FB7F894EC9141
:1001B000E22BEC938FBF089590E0FC01EC52FF4FCF
:1001C0002491FC01E05FFE4F3491FC01E450FF4FAD
:1001D000E491EE23C9F0222339F0233001F1A8F491
:1001E000213019F1223029F1F0E0EE0FFF1FE85124
:1001F000FF4FA591B4918FB7F894EC91611126C08F
:1002000030953E233C938FBF08952730A9F02830C6
:10021000C9F0243049F7809180008F7D03C0809120
:1002200080008F7780938000DFCF84B58F7784BD87
:10023000DBCF84B58F7DFBCF8091B0008F7780932B
:10024000B000D2CF8091B0008F7DF9CF3E2BDACFB6
:100250003FB7F8948091DF019091E001A091E10116
:10026000B091E20126B5A89B05C02F3F19F0019679
:10027000A11DB11D3FBFBA2FA92F982F8827BC0100
:10028000CD01620F711D811D911D42E0660F771F28
:10029000881F991F4A95D1F70895AF92BF92CF92C8
:1002A000DF92EF92FF920F931F93CF93DF936C0136
:1002B0007B018B01040F151FEB015E01AE18BF0817
:1002C000C017D10759F06991D601ED91FC910190C9
:1002D000F081E02DC6010995892B79F7C501DF91E1
:1002E000CF911F910F91FF90EF90DF90CF90BF9033
:1002F000AF900895FC01538D448D252F30E0842F5D
:1003000090E0821B930B541710F0CF96089501973D
:100310000895FC01918D828D981761F0A28DAE0F2A
:10032000BF2FB11D5D968C91928D9F5F9F73928FB1
:1003300090E008958FEF9FEF0895FC01918D828DDD
:10034000981731F0828DE80FF11D858D90E00895AA
:100350008FEF9FEF0895FC01918D228D892F90E002
:10036000805C9F4F821B91098F739927089583EEBC
:1003700091E00E94AB0121E0892B09F420E0822F5B
:10038000089580E090E0892B29F00E94B701811147
:100390000C9400000895FC01A48DA80FB92FB11D85
:1003A000A35ABF4F2C91848D90E001968F739927AB
:1003B000848FA689B7892C93A089B1898C91837089
:1003C00080648C93938D848D981306C00288F38982
:1003D000E02D80818F7D80830895EF92FF920F93AF
:1003E0001F93CF93DF93EC0181E0888F9B8D8C8DE1
:1003F00098131AC0E889F989808185FF15C09FB7D5
:10040000F894EE89FF896083E889F9898081837097
:10041000806480839FBF81E090E0DF91CF911F9146
:100420000F91FF90EF900895F62E0B8D10E00F5F67
:100430001F4F0F731127E02E8C8D8E110CC00FB63D
:1004400007FCFACFE889F989808185FFF5CFCE01D5
:100450000E94CB01F1CFEB8DEC0FFD2FF11DE35A84
:10046000FF4FF0829FB7F8940B8FEA89FB89808158
:100470008062CFCF0F931F93CF93DF938C01D0E097
:10048000C0E0F801EC0FFD1F6491662341F083EE9C
:1004900091E00E94ED01892B11F02196F2CFCE015F
:1004A000DF91CF911F910F910895CF93DF93EC01CE
:1004B000888D8823B9F0AA89BB89E889F9898C914C
:1004C00085FD03C0808186FD0DC00FB607FCF7CF08
:1004D0008C9185FFF2CF808185FFEDCFCE010E9408
:1004E000CB01E9CFDF91CF910895FC01019000206D
:1004F000E9F73197AF01481B590BBC0183EE91E03E
:100500000C944D0182E191E00C9475028F929F92C0
:10051000AF92BF920F931F93CF93DF93CDB7DEB708
:10052000A1970FB6F894DEBF0FBECDBF19A242301F
:1005300008F44AE08E010F5D1F4F842E912CB12CE0
:10054000A12CA50194010E94A306E62FB901CA01BE
:10055000EA30F4F4E05DD801EE938D01232B242BD7
:10056000252B79F790E080E0109719F0CD010E94DB
:100570007502A1960FB6F894DEBF0FBECDBFDF9116
:10058000CF911F910F91BF90AF909F908F90089542
:10059000E95CE1CFE9ECF1E0858391E0948310829E
:1005A000118212821382682F84E00E94DC0085E0B1
:1005B0000E94BD0061E085E00E94DC0085E191E0E1
:1005C0000E9475020C9482021F920F920FB60F9236
:1005D00011242F933F938F939F93AF93BF93809159
:1005E000DB019091DC01A091DD01B091DE01309141
:1005F000DA0123E0230F2D3758F50196A11DB11D17
:100600002093DA018093DB019093DC01A093DD015C
:10061000B093DE018091DF019091E001A091E101B2
:10062000B091E2010196A11DB11D8093DF0190936D
:10063000E001A093E101B093E201BF91AF919F91DE
:100640008F913F912F910F900FBE0F901F90189593
:1006500026E8230F0296A11DB11DD2CF1F920F9243
:100660000FB60F9211242F933F934F935F936F9385
:100670007F938F939F93AF93BF93EF93FF9383EEFB
:1006800091E00E94CB01FF91EF91BF91AF919F91BB
:100690008F917F916F915F914F913F912F910F902B
:1006A0000FBE0F901F9018951F920F920FB60F92CA
:1006B00011242F938F939F93EF93FF93E091F30176
:1006C000F091F4018081E091F901F091FA0182FD4D
:1006D0001BC090818091FC018F5F8F732091FD0181
:1006E000821741F0E091FC01F0E0ED51FE4F958F53
:1006F0008093FC01FF91EF919F918F912F910F902B
:100700000FBE0F901F9018958081F4CF1F920F920B
:100710000FB60F9211242F933F934F935F936F93D4
:100720007F938F939F93AF93BF93CF93EF93FF9359
:100730004A9B55C02D98C1E00E9428012091B2012A
:100740003091B301FB01E21BF30B6093B201709394
:10075000B3018093B4019093B5012091B601C1110A
:100760008CC0E13086E4F80708F0C0C0222309F409
:10077000BDC0223009F046C09F0120523D40213CBF
:10078000384080F51092B7011092BC011092BD0163
:100790001092BE011092BF0181E090E0A0E0B0E0B5
:1007A0008093B8019093B901A093BA01B093BB01B3
:1007B0001092C00183E08093B601FF91EF91CF9139
:1007C000BF91AF919F918F917F916F915F914F9169
:1007D0003F912F910F900FBE0F901F9018952D9A5B
:1007E000C0E0AACFCF01805996408136944008F0EE
:1007F0007BC08091B701803208F476C081E080939D
:10080000C001D8CF243009F06FC09F01285131407A
:10081000213C384008F068C04091B8015091B901BE
:100820006091BA017091BB01E036F440A0F0809174
:10083000BC019091BD01A091BE01B091BF01842B7C
:10084000952BA62BB72B8093BC019093BD01A09351
:10085000BE01B093BF01440F551F661F771F409321
:10086000B8015093B9016093BA017093BB018091B4
:10087000B7018F5F8093B7019DCF213041F4CF0145
:1008800080549A418138914178F582E094CF2330A9
:1008900059F5CF01885191408133924028F58091DC
:1008A000B701803220F48091C001882309F1789447
:1008B0008091BD0180959091BC01981302C0109267
:1008C000BD018091C0019091BE012091BC01309189
:1008D000BD013093D6012093D5019093D701809329
:1008E000D80181E08093D90180E065CF81E063CFBA
:1008F00084E061CF789484B5826084BD84B58160E2
:1009000084BD85B5826085BD85B5816085BD8091DA
:100910006E00816080936E00109281008091810052
:10092000826080938100809181008160809381004A
:10093000809180008160809380008091B10084600C
:100940008093B1008091B00081608093B00080916D
:100950007A00846080937A0080917A00826080932C
:100960007A0080917A00816080937A0080917A0089
:10097000806880937A001092C100E091F301F091B9
:10098000F40182E08083E091EF01F091F0011082A8
:10099000E091F101F091F20180E180831092FB017E
:1009A000E091F701F091F80186E08083E091F50194
:1009B000F091F601808180618083E091F501F091F2
:1009C000F601808188608083E091F501F091F60165
:1009D000808180688083E091F501F091F60180814B
:1009E0008F7D80830E9428014B015C0180EAC82E24
:1009F0008FE0D82EE12CF12C0E942801681979098A
:100A00008A099B09683E734081059105A8F321E09E
:100A1000C21AD108E108F10888EE880E83E0981E1A
:100A2000A11CB11CC114D104E104F10429F781E92E
:100A300090E00E943A020E94820252985A9A259AA5
:100A400080916900816080936900E09AE89A84E06F
:100A50000E94BD0085E00E94BD0088E690E00E94F3
:100A60003A020E94820210E4C0E0D0E08091D901F5
:100A7000882309F4BCC01092D9018091D5019091CE
:100A8000D601C897A9F58091D7018C3019F1803132
:100A900009F4A0C085EC90E00E943A026091D50173
:100AA0007091D60190E080E040E10E94860289EBDF
:100AB00090E00E943A026091D70170E090E080E0FF
:100AC00040E10E9486028091D801882379F089E76D
:100AD00091E00AC081E00E94CA028091D801882377
:100AE00009F475C087E291E00E9475020E948202BB
:100AF0002FB7F8948091DB019091DC01A091DD018A
:100B0000B091DE012FBF4091C1015091C2016091AF
:100B1000C3017091C401841B950BA60BB70BC29740
:100B2000A105B10508F448C02FB7F8948091DB0106
:100B30009091DC01A091DD01B091DE012FBF809387
:100B4000C1019093C201A093C301B093C40110935B
:100B50007C0080917A00806480937A0080917A0092
:100B600086FDFCCF80917800909179009093D00120
:100B70008093CF0187EA91E00E947502C090CF0177
:100B8000D090D0010D2C000CEE08FF084AE0C70100
:100B9000B601F7FE0DC06DE283EE91E00E94ED011B
:100BA00066277727CB016C197D098E099F094AE0DA
:100BB0000E9486020E948202209709F457CF0E9469
:100BC000B701882309F452CF0E9400004FCF80E480
:100BD00091E08ACF80E00E94CA028091D8018823E8
:100BE00019F08EE491E080CF89E691E07DCF80918D
:100BF000CD01882309F47CCF8091C9019091CA016D
:100C0000A091CB01B091CC014997A105B10558F154
:100C10001092CD0185E00E94BD0060E085E00E9459
:100C2000DC0084E891E00E9475022091C9013091B6
:100C3000CA014091CB015091CC01AAE0B0E00E94E2
:100C4000C5064AE00E9486028DE991E00E94750285
:100C50000E9482021092C9011092CA011092CB0127
:100C60001092CC0145CF2FB7F8948091DB01909181
:100C7000DC01A091DD01B091DE012FBF4091C501E3
:100C80005091C6016091C7017091C801841B950BFA
:100C9000A60BB70B0A97A105B10508F429CF2FB70A
:100CA000F8948091DB019091DC01A091DD01B0917D
:100CB000DE012FBF8093C5019093C601A093C701A9
:100CC000B093C8018091C9019091CA01A091CB0154
:100CD000B091CC010196A11DB11D8093C9019093E3
:100CE000CA01A093CB01B093CC0102CFE3EEF1E0B7
:100CF0001382128288EE93E0A0E0B0E084839583B3
:100D0000A683B78384E091E09183808385EC90E0B3
:100D10009587848784EC90E09787868780EC90E0C5
:100D2000918B808B81EC90E0938B828B82EC90E0B6
:100D3000958B848B86EC90E0978B868B118E128E30
:100D4000138E148E0895A1E21A2EAA1BBB1BFD015F
:100D50000DC0AA1FBB1FEE1FFF1FA217B307E4079A
:100D6000F50720F0A21BB30BE40BF50B661F771FF2
:100D7000881F991F1A9469F76095709580959095D2
:100D80009B01AC01BD01CF0108950E94D606A59F2D
:100D9000900DB49F900DA49F800D911D1124089576
:100DA000EE0FFF1F0590F491E02D0994A29FB00172
:100DB000B39FC001A39F700D811D1124911DB29F8F
:0E0DC000700D811D1124911D0895F894FFCF30
:100DCE0000000000ED014D017A015502AB018901D1
:100DDE009D010D0A004D4F544F52504F543A20442E
:100DEE00726976696E670049523A20566F6C756D5E
:100DFE006520636F6E74696E75696E67207570001D
:100E0E0049523A20566F6C756D65207570004952C7
:100E1E003A20566F6C756D6520636F6E74696E75D2
:100E2E00696E6720646F776E0049523A20566F6C78
:100E3E00756D6520646F776E0020726570656174E4
:100E4E00696E67004D4F544F52504F543A205374B1
:100E5E006F707065642061667465722000206D533A
:100E6E002064656C617900504F5420524541443ADC
:020E7E00200052
:00000001FF
